:020000040800F2
:100000000050002061090008A9090008A90900089A
:10001000A9090008A9090008A909000800000000B2
:10002000000000000000000000000000A909000816
:10003000A909000800000000A9090008A909000892
:10004000A9090008A9090008A9090008A9090008C8
:10005000A9090008A9090008A9090008A9090008B8
:10006000A9090008A9090008A9090008A9090008A8
:10007000A9090008A9090008A9090008A909000898
:10008000A9090008A9090008A9090008A909000888
:10009000A9090008A9090008A9090008A909000878
:1000A000A9090008A9090008A9090008A909000868
:1000B000A9090008A9090008A9090008A909000858
:1000C000A9090008A9090008A9090008A909000848
:1000D000A9090008A9090008A9090008A909000838
:1000E000A9090008A9090008A909000800000000E2
:1000F0000000000000000000000000000000000000
:0C01000000000000000000005FF808F1A3
:10010C0010B5054C237833B9044B13B10448AFF345
:10011C0000800123237010BD540400200000000057
:10012C000C01000808B5034B1BB103490348AFF39E
:10013C00008008BD00000000580400200C010008DD
:10014C000D4B0E4A196841F00101196059680A40BB
:10015C005A601A6822F0847222F480321A601A688B
:10016C0022F480221A605A684FF41F0022F4FE0217
:10017C005A609860704700BF001002400000FFF802
:10018C000C4B1A6822F480321A601A68B0F5803F62
:10019C0022F480221A6008D0B0F5802F04D11A689E
:1001AC0042F4A0221A60704770471A6842F48032F9
:1001BC001A6070470010024082B000230949019375
:1001CC0000E04AB90A68019B01330193019BB3F526
:1001DC00A06F02F40032F4D1024B1868C0F3404017
:1001EC0002B0704700100240034A136823F0F80372
:1001FC0043EAC0001060704700100240014B1860C9
:10020C00704700BF00004242034A536823F47C133A
:10021C000B4303435360704700100240014B1866B8
:10022C00704700BF00004242034A536823F00303A7
:10023C0018435060704700BF00100240024B5868D2
:10024C0000F00C00704700BF00100240034A5368D6
:10025C0023F0F00318435060704700BF00100240B9
:10026C00034A536823F4E06318435060704700BF9F
:10027C0000100240034A536823F4605343EAC00061
:10028C005060704700100240044A537A11B1184371
:10029C005072704723EA0000507270470010024001
:1002AC00014BC3F8D800704700004242034A536820
:1002BC0023F4404318435060704700BF00100240C5
:1002CC00084B0022012883F8202083F8202006D038
:1002DC00042803D1052283F820207047704783F847
:1002EC002000704700100240014BC3F88004704797
:1002FC0000004242024A136A18431062704700BF62
:10030C0000100240014BC3F83C047047000042420D
:10031C001F4A536803F00C03082B10B422D01D4B5A
:10032C0003601B491C4A4C68C4F30314145DE3407E
:10033C0043604C68C4F30224145D23FA04F4846013
:10034C004C68C4F3C22C12F80C40E340C3604968FB
:10035C005DF8044BC1F381310A44127CB3FBF2F318
:10036C000361704753685168C3F38343C90303F1B6
:10037C00020307D55268920304D4064A02FB03F326
:10038C000360CEE7054A02FB03F30360C9E700BF35
:10039C000010024000127A000000002000093D000D
:1003AC00044A536911B118435061704723EA0000A5
:1003BC005061704700100240044A936911B1184310
:1003CC009061704723EA0000906170470010024072
:1003DC00044AD36911B11843D061704723EA000075
:1003EC00D061704700100240044AD36811B1184321
:1003FC00D060704723EA0000D060704700100240C4
:10040C00044A136911B118431061704723EA0000C4
:10041C001061704700100240014BC3F84004704754
:10042C0000004242014BD864704700BF00004242BA
:10043C00014BD871704700BF001002404309012BDB
:10044C000BD0022B094B0CBF1B6A5B6A00F01F0020
:10045C0023FA00F000F001007047044B1B6800F019
:10046C001F0023FA00F000F001007047001002405A
:10047C00024A536A43F08073536270470010024083
:10048C00034B9B68184214BF01200020704700BF2B
:10049C0000100240014B9872704700BF00100240E0
:1004AC003B4A3C4B116841F0010110B41160546897
:1004BC0023405360136823F0847323F48033136058
:1004CC00136823F480231360536883B0002023F453
:1004DC00FE034FF41F01536091600090019013686C
:1004EC0043F48033136003E0009BB3F5A06F09D095
:1004FC00136803F400330193009B01330093019BB9
:10050C00002BF1D0224B1B6813F4003318BF0123CE
:10051C000193019B012B07D01F4B4FF000629A6097
:10052C0003B05DF8044B70471C4A194B116841F03D
:10053C0010011160116821F003011160116841F084
:10054C00020111605A685A605A685A605A6842F43B
:10055C0080625A605A6822F47C125A605A6842F4DB
:10056C00E8125A601A6842F080721A601A68920196
:10057C00FCD55968064A21F003015960596841F0CD
:10058C0002015960536803F00C03082BFAD1C3E73E
:10059C00001002400000FFF800ED00E000200240D7
:1005AC00114A536803F00C03082B09D00F4B0E4A69
:1005BC000F495268C2F303128A5CD3400B61704737
:1005CC0053685168C3F38343C90303F1020306D58F
:1005DC005268920303D4054A02FB03F3E7E7054A8A
:1005EC0002FB03F3E3E700BF0010024000127A00A5
:1005FC001400002000093D0008B52F4B98421CD078
:10060C002E4B984223D02E4B98422AD02D4B9842F9
:10061C0009D02D4B98422ED02C4B984235D02C4BD8
:10062C0098423CD008BD01212020FFF7DDFEBDE83B
:10063C00084000212020FFF7D7BE01210420FFF73E
:10064C00D3FEBDE8084000210420FFF7CDBE0121F8
:10065C000820FFF7C9FEBDE8084000210820FFF77D
:10066C00C3BE01211020FFF7BFFEBDE808400021EA
:10067C001020FFF7B9BE01214020FFF7B5FEBDE801
:10068C00084000214020FFF7AFBE01218020FFF77A
:10069C00ABFEBDE8084000218020FFF7A5BE01217C
:1006AC004FF48070FFF7A0FEBDE8084000214FF426
:1006BC008070FFF799BE00BF00080140000C01409C
:1006CC00001001400014014000180140001C0140C2
:1006DC000020014008B501210846FFF785FEBDE862
:1006EC00084000210120FFF77FBE00BF2DE9F0413B
:1006FC0091F803C01CF0100F18BF8B7809880CF010
:10070C000F0518BF1D43CBB21BB304680023012691
:10071C004FF00F0802E00133082B19D006FA03F250
:10072C0032EA0107F7D14FEA830E08FA0EF724EAF2
:10073C00070405FA0EFEBCF1280F4EEA040432D071
:10074C00BCF1480F03F1010308BF0261082BE5D18E
:10075C000460FF2925D94468002301264FF00F08B7
:10076C0002E00133082B1BD003F1080206FA02F257
:10077C0032EA0107F5D14FEA830E08FA0EF724EAA4
:10078C00070405FA0EFEBCF1280F4EEA04040CD047
:10079C00BCF1480F03F1010308BF0261082BE3D140
:1007AC004460BDE8F0814261B5E74261D9E700BF22
:1007BC004FF6FF7240F2024302804380704700BF45
:1007CC008368194214BF012000207047806880B2F2
:1007DC00704700BFC368194214BF01200020704746
:1007EC00C06880B2704700BF0161704741617047BB
:1007FC000AB1016170474161704700BFC160704729
:10080C0041F48033836181618361836983697047BB
:10081C00054A13684FF6807C03EA0C030B4343EA4A
:10082C0000131360704700BF00000140014BD861FA
:10083C00704700BF0000204200281A4B00F4401201
:10084C00B4BFDB695B68B2F5401F10B41FFA80FCC3
:10085C0020D0C20215D5C0F303440322A24023EAE0
:10086C00020343F0706321B1420D12010CFA02F243
:10087C0013430C4A5DF8044B0028B4BFD36153609A
:10088C007047420D12010CFA02F223EA020343F004
:10089C007063E8E7034C626822F0706223F07063C7
:1008AC006260E0E70000014001F0FC0303F18043CB
:1008BC0003F5803301F003019A6889004FF00F0CA7
:1008CC000CFA01FC22EA0C029A609A6888400243F6
:1008DC009A607047014BC3F8DC007047000020425F
:1008EC0000B5012185B01020FFF766FD4FF40052D2
:1008FC0041F203031648ADF8042001A9ADF8063007
:10090C00FFF7F4FE124C41F253754FF400512046A0
:10091C00FFF76AFF40F2DC51039500E000BF039B38
:10092C005A1E002B0392F9DC0139F5D14FF400511A
:10093C002046FFF75BFF40F2DC51029500E000BF60
:10094C00029B5A1E002B0292F9DC0139F5D1DCE72F
:10095C0000100140002103E00B4B5B584350043165
:10096C000A480B4B42189A42F6D30A4A02E000237B
:10097C0042F8043B084B9A42F9D3FFF791FD00F083
:10098C000FF8FFF7ADFF7047FC0A000800000020CD
:10099C00540400205404002074040020FEE70000DE
:1009AC0070B50D4E0D4D761BB61006D0002455F8C3
:1009BC00043B01349847A642F9D1094E094D761BE8
:1009CC0000F084F8B61006D0002455F8043B01342E
:1009DC009847A642F9D170BDF00A0008F00A000849
:1009EC00F80A0008F00A0008024B13B1024800F0A4
:1009FC0005B8704700000000150A000800230146E6
:100A0C001A46184600F01AB838B5084B084D5B1B4F
:100A1C009C1007D0043B1D44013C55F80439984701
:100A2C00002CF9D1BDE8384000F056B8FC0A00089B
:100A3C00F80A0008704700BF704700BF2DE9F04767
:100A4C00DFF880A00646DAF8000098460F4691467B
:100A5C00FFF7F0FF1A4B1B68D3F8484124B36568C5
:100A6C001F2D26DC5EB96B1C0235DAF800006360C2
:100A7C0044F82570FFF7E0FF0020BDE8F08704EB99
:100A8C0085010123C1F88890D4F88821AB401A4322
:100A9C00022EC4F88821C1F80881E4D1D4F88C2145
:100AAC001343C4F88C31DEE703F5A674C3F8484150
:100ABC00D5E7DAF80000FFF7BFFF4FF0FF30DCE7B7
:100ACC00D40A00085004002028000020F8B500BF0C
:100ADC00F8BC08BC9E467047F8B500BFF8BC08BC13
:040AEC009E4670476B
:080AF000F509000831010008BE
:040AF8000D010008E4
:100AFC0000000000010203040102030406070809B8
:100B0C0002040608000000000000000001020304BB
:100B1C000607080900A24A04000000001403002084
:100B2C007C030020E4030020000000000000000013
:100B3C0000000000000000000000000000000000A9
:100B4C000000000000000000000000000000000099
:100B5C000000000000000000000000000000000089
:100B6C000000000000000000000000000000000079
:100B7C000000000000000000000000000000000069
:100B8C000000000000000000000000000000000059
:100B9C000000000000000000000000000000000049
:100BAC000000000000000000000000000000000039
:100BBC000000000000000000000000000000000029
:100BCC0001000000000000000E33CDAB34126DE6C6
:100BDC00ECDE05000B00000000000000000000002F
:100BEC0000000000000000000000000000000000F9
:100BFC0000000000000000000000000000000000E9
:100C0C0000000000000000000000000000000000D8
:100C1C0000000000000000000000000000000000C8
:040F4C00700400200D
:040000050800096185
:00000001FF
